:1000000098EF11F07EEF16F007EF10F036EF16F0D4
:100010005BEF16F0F9EF15F0DAEF0DF0006A016A08
:10002000026A036A046A056A066A076AADEC15F09B
:10003000D0A202D0EEEC11F0D082D080000E096E7A
:10004000E10E086E800E0A6E0B0EE56E0A50E56E2C
:100050000950E56E0850E56E3FEC12F0040EE12603
:10006000D3EC10F00201976B0FEC16F023EC16F0B6
:1000700026EC14F08CEC15F049EC16F00201906BB4
:100080008384010EE56E2C0EE56E5FEC14F0E652F3
:10009000E6528394010ED16E040090C208F0070E60
:1000A000085CFAE2FA6AFB6A0834FA36E834FA368F
:1000B000FC0BC20FE56E000EFA22000EFB22E4508C
:1000C000F96E81EF02F06FEF00F058EF02F08BEF66
:1000D00001F0F2EF01F04CEF00F00CEF01F0020E36
:1000E0000201906F8C840201915102019303F3CFBE
:1000F00092F202019351100A04E1080E046E056A9F
:1001000002D0046A056A0450100F066E000E052026
:10011000076E000E096EEC0E086E800E0A6E02016C
:100120008351E56E02018251E56E02018151E56E57
:1001300002018051E56E0A50E56E0950E56E0850E7
:10014000E56E05EC0FF0070EE126000E096EF40EC9
:10015000086E800E0A6E02018351E56E0201825123
:10016000E56E02018151E56E02018051E56E0A5093
:10017000E56E0950E56E0850E56E05EC0FF0070ED0
:10018000E126E6EC09F00550E56E0450E56E000E40
:10019000E56E020EE56E90EC12F0086EF3CF09F0FA
:1001A000040EE126000E0826020E092208C0E9FF0F
:1001B00009C0EAFFEECF00F0EFCF01F00750E56E87
:1001C0000650E56E000EE56E020EE56E90EC12F044
:1001D000086EF3CF09F0040EE126000E0826020E89
:1001E000092208C0E9FF09C0EAFFEECF02F0EFCF15
:1001F00003F08988898A8B9A02019951E56E35EC62
:100200000DF0E65264EC15F0CBEC15F0C250830B08
:100210000409C26EC28240D7020E0201906F92C2E0
:1002200008F0096A020192BF0968085004260950C3
:10023000052292C208F0096A020192BF09680850BB
:100240000626095007220550800F800F02E1400E5C
:10025000045C05E3C00E0426D8A0050608D0D880AB
:1002600005AED89004E3400E0426D8B0052A075006
:10027000800F800F02E1400E065C05E3C00E0626EB
:10028000D8A0070608D0D88007AED89004E3400E67
:100290000626D8B0072A0550E56E0450E56E000E1C
:1002A000E56E020EE56E90EC12F0086EF3CF09F0E9
:1002B000040EE126000E0826020E092208C0E9FFFE
:1002C00009C0EAFFEECF00F0EFCF01F00750E56E76
:1002D0000650E56E000EE56E020EE56E90EC12F033
:1002E000086EF3CF09F0040EE126000E0826020E78
:1002F000092208C0E9FF09C0EAFFEECF02F0EFCF04
:1003000003F0A0BAC9D6A0BCC7D6C2B2C5D6795030
:10031000A19CA08CC1D6020E0201906FC4CF08F040
:10032000096A08500B6E0A6AC3CF08F0096A0A50BE
:1003300008260B5009227850A19AA08A8B8A000EB9
:100340000B6EEC0E0A6E800E0C6E0150E56E0050C6
:10035000E56E0950E56E0850E56E0C50E56E0B50E9
:10036000E56E0A50E56EA4EC02F0070EE1260001EE
:10037000ED350001ED31096E0001EC31086E0934F4
:10038000093208320850676E0001EC51086E0850BF
:10039000030BE838F46E6650CF0BF410666E8B9A40
:1003A0000001ED350001ED31096E0001EC31086E00
:1003B00009340932083209340932083208500F0171
:1003C000556F0001EC51086E08407F0B086E085015
:1003D000030BE838F46E0F015451CF0BF4100F01EA
:1003E000546F5AD6020E0201906FC4CF08F0096A0A
:1003F00008500B6E0A6AC3CF08F0096A0A50082633
:100400000B5009227950A19CA08C000E0B6EF40EAB
:100410000A6E800E0C6E0350E56E0250E56E0950B8
:10042000E56E0850E56E0C50E56E0B50E56E0A5017
:10043000E56EA4EC02F0070EE1260001F53500019F
:10044000F531096E0001F431086E093409320832C1
:100450000850BE6E0001F451086E0850030BE838D6
:10046000F46EBD50CF0BF410BD6E0001F5350001E8
:10047000F531096E0001F431086E09340932083291
:1004800009340932083208500F01586F0001F45145
:10049000086E08407F0B086E0850030BE838F46EB6
:1004A0000F015751CF0BF4100F01576F4CEF00F0B5
:1004B0000F01323F02D00F01332B020E0F01335DCB
:1004C00003E1590E0F01325D0BE3C2B209D00F01F7
:1004D000326B0F01336BC250830B0409C26EC282B0
:1004E00081B64CEF00F0F29E49EC16F08998899A9B
:1004F000648EB68EC29283940201906BF28E4CEFA2
:1005000000F081A603D0010E0201906F0201975105
:10051000D8B44CEF00F0000E096EE10E086E800EAC
:100520000A6E0B0EE56E0A50E56E0950E56E085036
:10053000E56E6DEC10F0040EE1260201976BD3EC32
:1005400010F04CEF00F01200D9CFE5FFE1CFD9FF5A
:1005500000C0E5FF01C0E5FF02C0E5FF03C0E5FF05
:1005600004C0E5FF05C0E5FF06C0E5FF07C0E5FFE5
:1005700008C0E5FF09C0E5FF0AC0E5FF0BC0E5FFC5
:100580000CC0E5FF0DC0E5FF0EC0E5FF0FC0E5FFA5
:1005900010C0E5FF020EDBCF00F0030EDBCF01F051
:1005A000040EDBCF02F0050EDBCF03F0060EDBCF2F
:1005B00004F0070EDBCF05F0080EDBCF06F000508D
:1005C000040F076E000E0120086E000E0220096E57
:1005D00007C0E9FF08C0F3FF0950E3EC15F00A6E0D
:1005E000F3CF0BF00A500B100AE105C00CF006C067
:1005F0000DF0E86A06BEFF0E0E6E0F6E37D1035087
:10060000055C036E04500658046E0AC019F00BC056
:100610001AF003C01BF004C01CF019501B02F4CFE9
:100620001EF0F3CF1DF01A501C02F4CF20F0F3CFD0
:100630001FF019501C02F3501E26F4501F22E86AC6
:1006400020221A501B02F3501E26F4501F22E86A83
:1006500020221CAE04D019501F5E1A50205A1AAE28
:1006600004D01B501F5E1C50205A1DC005F01EC038
:1006700006F01FC00AF020C00BF005380F0B0C6EFF
:1006800006380D6EF00B0D1A0C260A50E838F00BE8
:100690000D120A380F0B0E6E0B380F6EF00B0F1A7F
:1006A0000E26F00E0FB60F2607C0E9FF08C0F3FFB5
:1006B0000950E3EC15F0076EF3CF08F0075008106F
:1006C000D8B4D4D00050020F056E000E0120066E83
:1006D000000E0220076E05C0E9FF06C0F3FF0750B9
:1006E000E3EC15F0086EF3CF09F00050060F0A6E28
:1006F000000E01200B6E000E0220106E0AC0E9FFF2
:100700000BC0F3FF1050E3EC15F00001196FF3CFAD
:100710001AF003C01BF004C01CF019501B02F4CFE8
:100720001EF0F3CF1DF01A501C02F4CF20F0F3CFCF
:100730001FF019501C02F3501E26F4501F22E86AC5
:1007400020221A501B02F3501E26F4501F22E86A82
:1007500020221CAE04D019501F5E1A50205A1AAE27
:1007600004D01B501F5E1C50205A1DC003F01EC039
:1007700004F01FC00AF020C00BF00450036E0A50B2
:10078000046E0B500A6E0B340B6A0ABE0B680A32F9
:1007900004320332035008260450092208C0E5FF42
:1007A00009C0F4FF05C0E9FF06C0F3FF075099EC4C
:1007B00016F002018751800FF36E0950800FF35C31
:1007C00003E108500201865D0BE286C2E5FF87C2A5
:1007D000F4FF05C0E9FF06C0F3FF075099EC16F0DF
:1007E00005C0E9FF06C0F3FF0750E3EC15F0036E08
:1007F000F3CF04F00201871D096E0201861D086E09
:10080000084A092A0450800FF36E0950800FF35CE8
:1008100002E10850035C13E20201871D046E02012D
:10082000861D036E034A042A03C0E5FF04C0F4FFDB
:1008300005C0E9FF06C0F3FF075099EC16F005C0AC
:10084000E9FF06C0F3FF0750E3EC15F0056EF3CFA8
:1008500006F0E86A06BEFF0E036E046E05500C2615
:1008600006500D2203500E2204500F2284C203F0C2
:1008700085C204F0E86A020185BFFF0E056E066EB0
:100880000650800FF36E0F50800FF35C08E10E509E
:10089000055C05E10D50045C02E10C50035C0BE2C9
:1008A00084C20CF085C20DF0E86A020185BFFF0E1C
:1008B0000E6E0F6E24D088C203F089C204F0E86A7D
:1008C000020189BFFF0E056E066E0F50800FF36E9A
:1008D0000650800FF35C08E105500E5C05E1045002
:1008E0000D5C02E103500C5C0AE288C20CF089C284
:1008F0000DF0E86A020189BFFF0E0E6E0F6E0CC08C
:10090000E5FF0DC0F4FF00C0E9FF01C0F3FF025096
:1009100099EC16F0E4CF10F0E4CF0FF0E4CF0EF036
:10092000E4CF0DF0E4CF0CF0E4CF0BF0E4CF0AF00D
:10093000E4CF09F0E4CF08F0E4CF07F0E4CF06F00D
:10094000E4CF05F0E4CF04F0E4CF03F0E4CF02F00D
:10095000E4CF01F0E4CF00F0E4CFD9FF1200D9CF0B
:10096000E5FFE1CFD9FF00C0E5FF01C0E5FF02C010
:10097000E5FF03C0E5FF04C0E5FF05C0E5FF06C0D5
:10098000E5FF07C0E5FF08C0E5FF09C0E5FF0AC0B5
:10099000E5FF0BC0E5FF0CC0E5FF0EC0E5FF0FC093
:1009A000E5FF020EDBCF00F0030EDBCF01F0040EFB
:1009B000DBCF02F0050EDBCF03F0060EDBCF04F039
:1009C000070EDBCF05F0080EDBCF06F0090EDBCFFC
:1009D00007F000500F01046F0150056F0250066FC1
:1009E0000350076F04500F01086F0550096F065040
:1009F0000A6F07500B6F0F01045105110611071103
:100A000006E00F01085109110A110B1105E1E96A0D
:100A1000F46AF36AE86A4BD10F010751800BE8448E
:100A2000006E0F010B51800BE844001A0F010635D0
:100A30000735016E026A820E0126D8A002060F0158
:100A40000A350B35046A0126045002220F010451B5
:100A5000036E0551046E7F0E0615056E058E03505C
:100A6000046F0450056F0550066F076B0F010851A6
:100A7000036E0951046E7F0E0A15056E058E035034
:100A8000086F0450096F05500A6F0B6B0F01055179
:100A9000036E0651046E0751056E0F010951076E72
:100AA0000A51086E0B51E56AE56E0850E56E075075
:100AB000E56EE56A0550E56E0450E56E0350E56E9F
:100AC00070EC0BF0036EF3CF04F0F4CF05F0E9CF38
:100AD00006F0080EE1260F010451076E0F010951BF
:100AE0000B6E0A510C6E0B51E56AE56E0C50E56E0B
:100AF0000B50E56EE56AE56AE56A0750E56E70EC55
:100B00000BF0F3CF08F0F4CF09F0E9CF0AF0080EAC
:100B1000E1260850076E0950086E0A50096E0A6AED
:100B200003500726045008220550092206500A22C5
:100B30000F010851036E0F0105510B6E06510C6E2B
:100B40000751E56AE56E0C50E56E0B50E56EE56AFF
:100B5000E56AE56A0350E56E70EC0BF0F3CF04F044
:100B6000F4CF05F0E9CF06F0080EE1260450036E3D
:100B70000550046E0650056E066A0750032608509D
:100B80000422095005220A500622400E0326000EB8
:100B900004220522062206AE13D00350400F000E99
:100BA0000420086E000E0520096E000E06200A6E55
:100BB0000850076E0950086E0A50096E0A6A11D073
:100BC00003340434076E086A08360550E844FE0B07
:100BD000081205340634096E0A6A0A36FF0E012629
:100BE00002220750036E0850046E7F0E0914056E32
:100BF0000A50066E0250800F7F0F02E1000E015C6A
:100C000019E3005006E0076A086A096A800E0A6E56
:100C100004D0076A086A096A0A6A098E7F0E0A12F6
:100C200007500F01046F0850056F0950066F0A50F6
:100C3000076F35D0D88002AED89006E30F01046B61
:100C4000056B066B076B2BD0005006E0006A076A45
:100C5000086A800E096E04D0006A076A086A096A89
:100C6000E86A023001300F6E0E6A0E320C6A0C50C8
:100C7000001207120E5008120F50091203500012F2
:100C800004500712055008120650091200500F01B7
:100C9000046F0750056F0850066F0950076F07CFA4
:100CA000E9FF06CFF4FF05CFF3FF0F010451E4CFB6
:100CB0000FF0E4CF0EF0E4CF0CF0E4CF0BF0E4CF74
:100CC0000AF0E4CF09F0E4CF08F0E4CF07F0E4CF76
:100CD00006F0E4CF05F0E4CF04F0E4CF03F0E4CF76
:100CE00002F0E4CF01F0E4CF00F0E4CFD9FF12002E
:100CF000D9CFE5FFE1CFD9FF00C0E5FF01C0E5FF97
:100D000002C0E5FF03C0E5FF04C0E5FF05C0E5FF45
:100D100006C0E5FF07C0E5FF08C0E5FF09C0E5FF25
:100D20000AC0E5FF0BC0E5FF0CC0E5FF0DC0E5FF05
:100D30000EC0E5FF0FC0E5FF10C0E5FF11C0E5FFE5
:100D400012C0E5FF13C0E5FF14C0E5FF15C0E5FFC5
:100D500016C0E5FF020EDBCF00F0030EDBCF01F083
:100D6000040EDBCF02F0050EDBCF03F0060EDBCF67
:100D700004F0070EDBCF05F0080EDBCF06F0090EFE
:100D8000DBCF07F000500F01246F0150256F025098
:100D9000266F0350276F04500F01286F0550296FED
:100DA00006502A6F07502B6F0F012651026E2751F4
:100DB000036E02340334006E016A0136026A036A6C
:100DC000016A0F012A51046E2B51056E043405345B
:100DD000005C026E03500158036E02507E0F006EDD
:100DE000000E0320016E0F012751800BE844026EB4
:100DF0000F012B51800BE844021A285129112A11A6
:100E00002B110EE1286B296BC00E2A6F7F0E2B6F02
:100E10002BCFE9FF2ACFF4FF29CFF3FF2851EFD0E2
:100E20000F01245125112611271105E1E96AF46A01
:100E3000F36AE86AE4D00F012451036E2551046E71
:100E40007F0E2615056E066A058E0F012851076E66
:100E50002951086E7F0E2A15096E0A6A098E0650FE
:100E6000800FF36E0A50800FF35C08E10950055CB7
:100E700005E10850045C02E10750035C08E20350FE
:100E80000326043605360636FF0E002601220B6ABD
:100E90000C6A0D6A010E0E6E0F6A106A116A126AF0
:100EA0000B500C100D100E1037E00650800FF36E33
:100EB0000A50800FF35C08E10950055C05E1085019
:100EC000045C02E10750035C1CE30F50136E1050EA
:100ED000146E1150156E1250166E0B5013100F6ECB
:100EE0000C501410106E0D501510116E0E5016107F
:100EF000126E0750035E0850045A0950055A0A50F2
:100F0000065A03500326043605360636D8900E32AC
:100F10000D320C320B32C4D70F2A04E3102A02E33D
:100F2000114A122A004A012A1234123211321032A6
:100F30000F320F50036E1050046E7F0E1114056EA9
:100F40001250066E0150800F7F0F02E1000E005C10
:100F500019E3025006E0076A086A096A800E0A6E01
:100F600004D0076A086A096A0A6A098E7F0E0A12A3
:100F700007500F01246F0850256F0950266F0A5043
:100F8000276F35D0D88001AED89006E30F01246BCF
:100F9000256B266B276B2BD0025006E0026A076A8E
:100FA000086A800E096E04D0026A076A086A096A34
:100FB000E86A013000300F6E0E6A0E320C6A0C5077
:100FC000021207120E5008120F500912035002129B
:100FD00004500712055008120650091202500F0162
:100FE000246F0750256F0850266F0950276F27CFB1
:100FF000E9FF26CFF4FF25CFF3FF0F012451E4CF03
:1010000016F0E4CF15F0E4CF14F0E4CF13F0E4CF02
:1010100012F0E4CF11F0E4CF10F0E4CF0FF0E4CF02
:101020000EF0E4CF0DF0E4CF0CF0E4CF0BF0E4CF02
:101030000AF0E4CF09F0E4CF08F0E4CF07F0E4CF02
:1010400006F0E4CF05F0E4CF04F0E4CF03F0E4CF02
:1010500002F0E4CF01F0E4CF00F0E4CFD9FF1200BA
:10106000D9CFE5FFE1CFD9FF00C0E5FF01C0E5FF23
:1010700002C0E5FF03C0E5FF04C0E5FF05C0E5FFD2
:1010800006C0E5FF07C0E5FF08C0E5FF09C0E5FFB2
:101090000AC0E5FF0BC0E5FF0CC0E5FF0DC0E5FF92
:1010A0000EC0E5FF0FC0E5FF10C0E5FF020EDBCF6D
:1010B00000F0030EDBCF01F0040EDBCF02F0050ED3
:1010C000DBCF03F0060EDBCF04F0070EDBCF05F01D
:1010D000080EDBCF06F0090EDBCF07F0086A096ABD
:1010E0000A6A0B6A00500001FC6F0150FD6F02504C
:1010F000FE6F0350FF6F04500F01006F0550016F2A
:101100000650026F0750036F0001FC51FD11FE11E4
:10111000FF1109E103CFE9FF02CFF4FF01CFF3FF95
:101120000F0100512ED10F010051011102110311C5
:1011300009E1FFC0E9FFFEC0F4FFFDC0F3FF0001BD
:10114000FC511FD10001FE35FF35006E016A0136EA
:10115000026A036A016A0F0102350335026E190F34
:10116000046E000E0320800FF36E0150800FF35CBD
:1011700002E10050045C09E2FFC0E9FFFEC0F4FF99
:10118000FDC0F3FF0001FC51FCD00050190F046EAC
:10119000000E0120800FF36E0350800FF35C02E11C
:1011A0000250045C09E203CFE9FF02CFF4FF01CF54
:1011B000F3FF0F010051E5D00001FC51046EFD5119
:1011C000056E7F0EFE15066E076A068E0F01005132
:1011D0000C6E01510D6E7F0E02150E6E0F6A0E8E93
:1011E0000001FF51800BE844106E10500AE0071E0A
:1011F000061E051E046C05E1052A03E1062AD8B483
:10120000072A0F010351800BE844106E10500AE0CA
:101210000F1E0E1E0D1E0C6C05E10D2A03E10E2A99
:10122000D8B40F2A0350800FF36E0150800FF35C87
:1012300002E10050025C11E20050106E0250105E9C
:1012400010501FE0E86CD8900FBED8800F320E32DD
:101250000D320C32010FF8E314D00250106E005022
:10126000105E10500AE0E86CD89007BED8800732B4
:10127000063205320432010FF8E302C000F003C069
:1012800001F00C500424046E0D500520056E0E5024
:101290000620026E0F500720036ED88003AED89050
:1012A00010E3031E021E051E046C05E1052A03E17E
:1012B000022AD8B4032A086A096A0A6A800E0B6EE9
:1012C0000AD0045005100210031005E1E96AF46A1F
:1012D000F36AE86A56D00450066E0550076E025055
:1012E0000C6E03500D6E000E0D5C08E1800E0C5C60
:1012F00005E1000E075C02E1000E065C09E2045005
:101300000426053602360336FF0E00260122E3D7F7
:10131000035010E004A006D0020E0426000E0522A1
:101320000222032203340332023205320432004A1D
:10133000012AEED7029EE86A013000300F6E0E6A75
:101340000E320C6A0C50081209120E500A120F507D
:101350000B12045008120550091202500A120350D1
:101360000B1208500001FC6F0950FD6F0A50FE6F10
:101370000B50FF6FFFC0E9FFFEC0F4FFFDC0F3FF9D
:10138000FC51E4CF10F0E4CF0FF0E4CF0EF0E4CF47
:101390000DF0E4CF0CF0E4CF0BF0E4CF0AF0E4CF93
:1013A00009F0E4CF08F0E4CF07F0E4CF06F0E4CF93
:1013B00005F0E4CF04F0E4CF03F0E4CF02F0E4CF93
:1013C00001F0E4CF00F0E4CFD9FF1200D9CFE5FF60
:1013D000E1CFD9FF00C0E5FF01C0E5FF02C0E5FF96
:1013E00003C0E5FF04C0E5FF05C0E5FF06C0E5FF5B
:1013F00007C0E5FF08C0E5FF09C0E5FF0AC0E5FF3B
:101400000BC0E5FF0CC0E5FF0DC0E5FF0EC0E5FF1A
:101410000FC0E5FF10C0E5FF11C0E5FF12C0E5FFFA
:1014200013C0E5FF006A830E016E026A7D0E036E33
:101430000F013551E56E0F013451E56ECEEC14F01D
:10144000046EF3CF05F0F4CF06F0E9CF07F0E652D3
:10145000E6520F013751E56E0F013651E56ECEECC5
:1014600014F0086EF3CF09F0F4CF0AF0E9CF0BF0D7
:10147000E652E6520B50E56E0A50E56E0950E56EF5
:101480000850E56E0750E56E0650E56E0550E56EB6
:101490000450E56E78EC06F0046EF3CF05F0F4CF5F
:1014A00006F0E9CF07F0080EE1260F01306B020EBF
:1014B0000F01316F086A096A0A6A0B6A0C6A0D6AC1
:1014C000600E0C240E6E000E0D200F6E0EC0E9FF94
:1014D0000FC0EAFFEECF0EF0EFCF0FF00F50E56E2A
:1014E0000E50E56EECEC13F00E6EF3CF0FF0F4CF70
:1014F00010F0E9CF11F0E652E6520750E56E0650C3
:10150000E56E0550E56E0450E56E1150E56E105025
:10151000E56E0F50E56E0E50E56EAFEC04F00E6E0A
:10152000F3CF0FF0F4CF10F0E9CF11F0080EE12661
:10153000440EE56E000EE56E200EE56E000EE56EC3
:101540001150E56E1050E56E0F50E56E0E50E56ED1
:1015500030EC08F00E6EF3CF0FF0F4CF10F0E9CFBF
:1015600011F0080EE126000E0C24126E020E0D2062
:10157000136E1150E56E1050E56E0F50E56E0E5073
:10158000E56EE0EC12F00E6EF3CF0FF0040EE126E4
:1015900012C0E9FF13C0EAFF0EC0EEFF0FC0EFFF5D
:1015A000000E0C240E6E020E0D200F6E0EC0E9FF11
:1015B0000FC0EAFFEECF0EF0EFCF0FF00150800F1B
:1015C000F36E0F50800FF35C02E10E50005C0EE2F0
:1015D000000E0C240E6E020E0D200F6E0EC0E9FFE1
:1015E0000FC0EAFFEECF00F0EFCF01F0000E0A24AB
:1015F0000E6E020E0B200F6E0EC0E9FF0FC0EAFF49
:10160000EECF0EF0EFCF0FF00F50800FF36E0350C0
:10161000800FF35C02E102500E5C0EE2000E0A2421
:101620000E6E020E0B200F6E0EC0E9FF0FC0EAFF18
:10163000EECF02F0EFCF03F0020E0A26D8B00B2A4D
:10164000020E0C26D8B00D2A084A092A000E095CA1
:1016500002E1400E085CD8A033D70F0E0026D8B0A8
:10166000012AF10E0226D8A003060150E56E0050B3
:10167000E56E38EC11F0E652E6520350E56E02508A
:10168000E56E8CEC16F0E652E652E4CF13F0E4CFB0
:1016900012F0E4CF11F0E4CF10F0E4CF0FF0E4CF7C
:1016A0000EF0E4CF0DF0E4CF0CF0E4CF0BF0E4CF7C
:1016B0000AF0E4CF09F0E4CF08F0E4CF07F0E4CF7C
:1016C00006F0E4CF05F0E4CF04F0E4CF03F0E4CF7C
:1016D00002F0E4CF01F0E4CF00F0E4CFD9FF120034
:1016E000D9CFE5FFE1CFD9FF00C0E5FF01C0E5FF9D
:1016F00002C0E5FF03C0E5FF04C0E5FF05C0E5FF4C
:1017000006C0E5FF07C0E5FF020EDBCF00F0030EC9
:10171000DBCF01F0040EDBCF02F0050EDBCF03F0D0
:10172000060EDBCF04F0070EDBCF05F0080EDBCF93
:1017300006F0090EDBCF07F000500F010C6F0150CF
:101740000D6F02500E6F03500F6F04500F01106F9A
:101750000550116F0650126F0750136F0F010C5197
:101760000F011203F4CF01F0F3CF00F000500F018E
:10177000166F0150176F0F010C510F011003F4CFBA
:1017800001F0F3CF00F000500F01146F0150156FFE
:101790000F010F510F011003F3CF00F00F0117518C
:1017A00000260050176F0F010E510F011103F3CFE8
:1017B00001F00150002600500F01176F0F010E516C
:1017C0000F011003F4CF01F0F3CF00F00F01165119
:1017D0000026175101220050166F0150176F0F019C
:1017E0000D510F011103F4CF03F0F3CF02F00250BB
:1017F00000260350012200500F01166F0150176F91
:101800000F010D510F011203F3CF00F000500F0133
:101810001B6F0F010D510F011003F4CF01F0F3CF37
:1018200000F000500F01196F01501A6F0F010C5199
:101830000F011303F3CF00F000500F011F6F0F01D2
:101840000C510F011103F4CF01F0F3CF00F0005061
:101850000F011D6F01501E6F0F01186B0F011C6BE4
:101860000F0118510F011425006E0F0119510F01BE
:101870001521016E0F011A510F011621026E0F0181
:101880001B510F011721036E0050146F0150156F8B
:101890000250166F0350176F0F011C510F011425D2
:1018A000006E0F011D510F011521016E0F011E5118
:1018B0000F011621026E0F011F510F011721036E38
:1018C00003C0E9FF02C0F4FF01C0F3FF0050E4CF02
:1018D00007F0E4CF06F0E4CF05F0E4CF04F0E4CF66
:1018E00003F0E4CF02F0E4CF01F0E4CF00F0E4CF66
:1018F000D9FF1200D9CFE5FFE1CFD9FF00C0E5FF46
:1019000001C0E5FF02C0E5FF03C0E5FF04C0E5FF3D
:1019100005C0E5FF06C0E5FF07C0E5FF08C0E5FF1D
:1019200009C0E5FF0AC0E5FF0BC0E5FF020EDBCFF3
:1019300000F0030EDBCF01F0040EDBCF02F0050E4A
:10194000DBCF03F0005001100210031005E1E96A3B
:10195000F46AF36AE86A6ED0960E046E056A035064
:1019600008E0D8900332023201320032044A052ADC
:10197000F6D704C006F005C007F0000E035C08E1CE
:10198000800E025C05E1000E015C02E1000E005CCD
:1019900018E200500026013602360336FF0E0426F8
:1019A0000522000E035C08E1800E025C05E1000EDA
:1019B000015C02E1000E005CECE304C006F005C02F
:1019C00007F00050046E0150056E7F0E0214086E81
:1019D000096A0450FF0A08E10550FF0A05E10850B2
:1019E0007F0A02E1095001E006D0006A016A026A3A
:1019F000036A064A072A029EE86A073006300B6E21
:101A00000A6A0A32086A0850001201120A500212C9
:101A10000B50031200500F012C6F01502D6F02501C
:101A20002E6F03502F6F2FCFE9FF2ECFF4FF2DCF56
:101A3000F3FF2C51E4CF0BF0E4CF0AF0E4CF09F030
:101A4000E4CF08F0E4CF07F0E4CF06F0E4CF05F0F0
:101A5000E4CF04F0E4CF03F0E4CF02F0E4CF01F0F0
:101A6000E4CF00F0E4CFD9FF1200D9CFE5FFE1CFFA
:101A7000D9FF00C0E5FF020EDBCF00F09480948216
:101A80009484958A958296840F014951E70B100939
:101A90000F01496F0F014951FC0B02090F01496FFA
:101AA0000F014851F30B04090F01486F0F01485112
:101AB000FC0B01090F01486F0F014A95FF0E0F0142
:101AC0004B6F0F014A51FC0B01090F014A6F0F01C7
:101AD0005195FF0E0F01526F0F015151FC0B0F0179
:101AE000516F6450F30B646E6450FC0B646EB6501F
:101AF000F30BB66EB650FC0BB66E64508F0B646E73
:101B0000B6508F0BB66E648EB68E66503F0B800952
:101B1000666E6650F00B0F09666EBD503F0B800974
:101B2000BD6EBD50F00B0F09BD6E0F015451F00B8F
:101B30000C090F01546F0F015751F00B0C090F01E5
:101B4000576F00507F0BF46E6550800BF410656E7C
:101B500000507F0BF46EB750800BF410B76E94906A
:101B600094929494959A95929694800E676E66508E
:101B7000CF0B666E800EBE6EBD50CF0BBD6E200EBD
:101B80000F01556F0F015451CF0B0F01546F200EF1
:101B90000F01586F0F015751CF0B0F01576F0F01F6
:101BA0004A850F015185649EB69EE4CF00F0E4CFD4
:101BB000D9FF1200D8CFE5FFE0CFE5FFE56EF3CF08
:101BC000E5FFF4CFE5FFE9CFE5FFEACFE5FFFACF88
:101BD000E5FFFBCFE5FFD9CFE5FFE1CFD9FF00C09F
:101BE000E5FF01C0E5FFF0A214D081A407D0F19871
:101BF000010E0201916F93C292F20AD0F188FF0E9A
:101C00000201916F0201931D0201926F0201922B5A
:101C1000F0929EA654D0C7A002D0C9CF94F2C7BA02
:101C200014D00201956BC7A43DD096C200F002010A
:101C3000962B016AE10E0026000E012200C0E9FF8A
:101C400001C0EAFFEFCFC9FF2DD00201952BC7A439
:101C500010D096C200F00201962B016AE10E002618
:101C6000000E012200C0E9FF01C0EAFFEFCFC9FF6B
:101C700019D002019551010A03E194C296F212D0E3
:101C800096C200F00201962B016AE10E0026000EBA
:101C9000012200C0E9FF01C0EAFF94C2EFFF010E7C
:101CA0000201976F0B0EE56E96C2E5FFACEC13F0E8
:101CB0000201966FE450E4509E96C68803D0A1A618
:101CC00001D0A196E4CF01F0E4CF00F0E4CFD9FF3A
:101CD000E4CFFBFFE4CFFAFFE4CFEAFFE4CFE9FF74
:101CE000E4CFF4FFE4CFF3FFE450E4CFE0FFE4CF30
:101CF000D8FF1000D9CFE5FFE1CFD9FF00C0E5FF45
:101D000001C0E5FF02C0E5FF03C0E5FF04C0E5FF39
:101D100005C0E5FF06C0E5FF07C0E5FF020EDBCF0B
:101D200000F0030EDBCF01F0040EDBCF02F0050E56
:101D3000DBCF03F000500F01206F0150216F0250E4
:101D4000226F0350236F205121112211231106E02D
:101D50002351800BE844006E005005E0E96AF46A04
:101D6000F36AE86A3FD00F0120512251026E2351DD
:101D7000036E02340334006E016A6A0E0026D8A096
:101D800001062051026E2151036E7F0E2215046E52
:101D9000056A048E011E006CD8B4012A0050E96E59
:101DA00002C000F003C001F004C006F005C007F057
:101DB000E95011E009E6E86CD890073206320132AA
:101DC0000032010FFAE307D0D8900036013606360C
:101DD0000736010FFAE307C0E9FF06C0F4FF01C0B0
:101DE000F3FF0050E4CF07F0E4CF06F0E4CF05F0B6
:101DF000E4CF04F0E4CF03F0E4CF02F0E4CF01F04D
:101E0000E4CF00F0E4CFD9FF1200D9CFE5FFE1CF56
:101E1000D9FF00C0E5FF01C0E5FF02C0E5FF03C038
:101E2000E5FF04C0E5FF05C0E5FF06C0E5FF07C00C
:101E3000E5FF08C0E5FF09C0E5FF020EDBCF00F0BB
:101E4000030EDBCF01F0040EDBCF02F0050EDBCF7B
:101E500003F0060EDBCF04F0070EDBCF05F0080E13
:101E6000DBCF06F00050020F076E000E0120086E57
:101E7000000E0220096E000EE56E000EF46E07C023
:101E8000E9FF08C0F3FF095099EC16F0000EE56E6B
:101E9000000EF46E00C0E9FF01C0F3FF025099ECA0
:101EA00016F00050040F076E000E0120086E000EA1
:101EB0000220096E03C0E5FF04C0F4FF07C0E9FF7C
:101EC00008C0F3FF095099EC16F0060E0026000E2C
:101ED0000122022205C0E5FF06C0F4FF00C0E9FFB1
:101EE00001C0F3FF025099EC16F0E4CF09F0E4CF03
:101EF00008F0E4CF07F0E4CF06F0E4CF05F0E4CF3C
:101F000004F0E4CF03F0E4CF02F0E4CF01F0E4CF3B
:101F100000F0E4CFD9FF1200D9CFE5FFE1CFD9FF20
:101F200000C0E5FF01C0E5FF02C0E5FF03C0E5FF1B
:101F300004C0E5FF05C0E5FF06C0E5FF07C0E5FFFB
:101F4000020EDBCF00F0030EDBCF01F0040EDBCF7F
:101F500002F0050EDBCF03F0D88003AED8902AE361
:101F6000031C076E021C066E011C056E001C046E2D
:101F7000042A04E1052A02E1064A072A0750E56E11
:101F80000650E56E0550E56E0450E56E7AEC0CF0F7
:101F9000046EF3CF05F0F4CF06F0E9CF07F0040E9E
:101FA000E126077E07C0E9FF06C0F4FF05C0F3FF86
:101FB00004501AD00350E56E0250E56E0150E56EF4
:101FC0000050E56E7AEC0CF0006EF3CF01F0F4CF28
:101FD00002F0E9CF03F0040EE12603C0E9FF02C0DE
:101FE000F4FF01C0F3FF0050E4CF07F0E4CF06F0A8
:101FF000E4CF05F0E4CF04F0E4CF03F0E4CF02F047
:10200000E4CF01F0E4CF00F0E4CFD9FF1200D8CF45
:10201000E5FFE0CFE5FFE56EF3CFE5FFF4CFE5FFA9
:10202000E9CFE5FFEACFE5FFFACFE5FFFBCFE5FF1C
:10203000D9CFE5FFE1CFD9FF00C0E5FF9EAC18D0B6
:102040000F01326B0F01336B02019051060A0FE052
:10205000C250E840E8401F0B006E0050010A04E146
:10206000030E0201906F03D0040E0201906F9E9C3C
:10207000F2A204D0060E0201906FF292A1AC0BD036
:10208000A0AC09D079AC06D0C250830B0409C26E53
:10209000C282A09CA19CA1AA0AD0A0AA08D078AC18
:1020A00005D0C250830BC26EC282A09AA19AE4CF1F
:1020B00000F0E4CFD9FFE4CFFBFFE4CFFAFFE4CF99
:1020C000EAFFE4CFE9FFE4CFF4FFE4CFF3FFE4500D
:1020D000E4CFE0FFE4CFD8FF1000D9CFE5FFE1CF98
:1020E000D9FF00C0E5FF01C0E5FF02C0E5FF03C066
:1020F000E5FF04C0E5FF05C0E5FF06C0E5FF07C03A
:10210000E5FF08C0E5FF020EDBCF00F0030EDBCFDA
:1021100001F0040EDBCF02F0050EDBCF03F0AA6A5C
:10212000046A0350045C2AE204C0A9FFA69EA69C90
:10213000A680A8CF05F004500024066EE86A0120AE
:10214000076EE86A0220086E06C0E9FF07C0F3FFC9
:1021500008506DEC16F0066E055006180DE006C02E
:10216000A8FFA69EA69CA684F29E550EA76EAA0E58
:10217000A76EA682F28EA694042AD3D7E4CF08F0E5
:10218000E4CF07F0E4CF06F0E4CF05F0E4CF04F0AD
:10219000E4CF03F0E4CF02F0E4CF01F0E4CF00F0AD
:1021A000E4CFD9FF1200D9CFE5FFE1CFD9FF00C0BE
:1021B000E5FF01C0E5FF02C0E5FF03C0E5FFE1C0A8
:1021C00098F2E2C093F2E3C034FF0F01356BE4C034
:1021D00000F0016A0050036E026A0250006E035064
:1021E000016E00500F01342701500F013523E5C067
:1021F00036FF0F01376BE6C000F0016A0050036E36
:10220000026A0250006E0350016E00500F01362723
:1022100001500F013723E7C099F2E8C080F20201B4
:10222000816BE9C000F0016A0050036E026A02503F
:1022300002018027035002018123EAC082F20201D9
:10224000836BEBC000F0016A0050036E026A02501B
:1022500002018227035002018323E4CF03F0E4CF7D
:1022600002F0E4CF01F0E4CF00F0E4CFD9FF120098
:10227000D9CFE5FFE1CFD9FF00C0E5FF01C0E5FF01
:1022800002C0E5FF03C0E5FF020EDBCF84F2030EC0
:10229000DBCF85F284C200F085C201F0020E00019E
:1022A000196F00011A6B00C01BF001C01CF019501F
:1022B0001B02F4CF1EF0F3CF1DF01A501C02F4CF16
:1022C00020F0F3CF1FF019501C02F3501E26F450DB
:1022D0001F22E86A20221A501B02F3501E26F450D7
:1022E0001F22E86A20221CAE04D019501F5E1A502B
:1022F000205A1AAE04D01B501F5E1C50205A1DC01D
:1023000000F01EC001F01FC002F020C003F000501A
:102310000201866F01500201876FE4CF03F0E4CF22
:1023200002F0E4CF01F0E4CF00F0E4CFD9FF1200D7
:1023300011EEFFF021EEFFF0F86AA68EA69CE96888
:102340000E0EEA6E0068ED6A0050FDE1740EF66E46
:102350002D0EF76E000EF86E0900F5CF05F009009E
:10236000F5CF06F034D00900F5CF00F00900F5CF25
:1023700001F00900F5CF02F009000900F5CFE9FFEF
:102380000900F5CFEAFF090009000900F5CF03F0C5
:102390000900F5CF04F009000900F6CF07F0F7CFE8
:1023A00008F0F8CF09F000C0F6FF01C0F7FF02C047
:1023B000F8FF03D00900F5CFEEFF0306FBE20406A9
:1023C000F9E207C0F6FF08C0F7FF09C0F8FF0506ED
:1023D000CAE20606C8E20EEC00F0FFD7D9CFE5FF4F
:1023E000E1CFD9FF00C0E5FF01C0E5FFD0A604D0D2
:1023F000D0A402D0D0B007D0D086D084D090D092D4
:102400008188828AFFD7FCBE02D0FCAC31D0FC9E12
:10241000FC9C8188828ACD503F0BCD6E780E006E79
:10242000CD909E90CD50CF0B3009CD6EB10ECF6EBA
:10243000DF0ECE6ECD809EA0FED70004016E01C0DF
:1024400000F00150EDE1016A8BBA012A0150D880F9
:10245000E866D890016A01360150010BE838E8447B
:10246000F46E8B50DF0BF4108B6E780E006ED8D7A5
:10247000E4CF01F0E4CF00F0E4CFD9FF1200D9CFD0
:10248000E5FFE1CFD9FF00C0E5FF01C0E5FF02C0D5
:10249000E5FF03C0E5FF04C0E5FF05C0E5FF06C09A
:1024A000E5FF07C0E5FF020EDBCF00F0030EDBCF38
:1024B00001F0040EDBCF02F0050EDBCF03F0AA6AB9
:1024C000046A0350045C19E204C0A9FFA69EA69CFE
:1024D000A68004500024056EE86A0120066EE86AB2
:1024E0000220076EA8CFE5FF05C0E9FF06C0F3FF95
:1024F0000750A6EC16F0042AE4D7E4CF07F0E4CFA7
:1025000006F0E4CF05F0E4CF04F0E4CF03F0E4CF2D
:1025100002F0E4CF01F0E4CF00F0E4CFD9FF1200E5
:10252000D9CFE5FFE1CFD9FF00C0E5FF01C0E5FF4E
:1025300002C0E5FF03C0E5FF020EDBCF00F0030E93
:10254000DBCF01F0040EDBCF02F0050EDBCF03F092
:10255000005002018A6F01508B6F025002018C6F94
:1025600003508D6F02018A5102018C03F4CF01F0F8
:10257000F3CF00F0005002018E6F01508F6F020107
:102580008A5102018D03F3CF00F002018B51020149
:102590008C03F3CF01F00150002602018F51002679
:1025A00000508F6F8FC2F3FF8E51E4CF03F0E4CF62
:1025B00002F0E4CF01F0E4CF00F0E4CFD9FF120045
:1025C000D9CFE5FFE1CFD9FF00C0E5FF01C0E5FFAE
:1025D00002C0E5FF03C0E5FF020EDBCF00F0030EF3
:1025E000DBCF01F0040EDBCF02F0050EDBCF03F0F2
:1025F0000350E56E0250E56E0150E56E0050E56E49
:102600007AEC0EF0006EF3CF01F0F4CF02F0E9CFD8
:1026100003F0040EE126000E035C08E1000E025CEC
:1026200005E1FF0E015C02E1FF0E005C03E3F368CD
:10263000E86803D001C0F3FF0050E4CF03F0E4CF1B
:1026400002F0E4CF01F0E4CF00F0E4CFD9FF1200B4
:10265000D9CFE5FFE1CFD9FF020EDBCF19F0030E92
:10266000DBCF1AF0040EDBCF1BF0050EDBCF1CF026
:1026700019501B02F4CF1EF0F3CF1DF01A501C02AC
:10268000F4CF20F0F3CF1FF019501C02F3501E2698
:10269000F4501F22E86A20221A501B02F3501E2613
:1026A000F4501F22E86A20221CAE04D019501F5E8D
:1026B0001A50205A1AAE04D01B501F5E1C50205ACC
:1026C00020C0E9FF1FC0F4FF1EC0F3FF00011D5131
:1026D000E4CFD9FF12000000320064009500C4006E
:1026E000F1001C0145016A018C01AA01C401D90154
:1026F000EA01F601FE010002FE01F601EA01D9013C
:10270000C401AA018C016A0145011C01F100C40049
:102710009500640032000000CEFF9CFF6BFF3CFF81
:102720000FFFE4FEBBFE96FE74FE56FE3BFE27FE48
:1027300016FE0AFE02FE00FE02FE0AFE16FE27FE3E
:102740003CFE56FE74FE96FEBBFEE4FE0FFF3CFF11
:102750006BFF9CFFCEFF0000D9CFE5FFE1CFD9FF93
:1027600000C0E5FF01C0E5FF02C0E5FF03C0E5FFD3
:1027700004C0E5FF020EDBCF00F0030EDBCF01F05B
:10278000026A036A01BE0ED00150046E0444FE0BBF
:10279000016E005C03E2D890013204D0032A03C02A
:1027A00002F0F0D70150005C02E30150005ED890C7
:1027B000013202C003F002060350F4E10050E4CFFE
:1027C00004F0E4CF03F0E4CF02F0E4CF01F0E4CF73
:1027D00000F0E4CFD9FF1200D9CFE5FFE1CFD9FF58
:1027E00000C0E5FF01C0E5FF02C0E5FF03C0E5FF53
:1027F000020EDBCF00F0030EDBCF01F0E86A01BE72
:10280000FF0E026EE56E0250E56E0150E56E00505F
:10281000E56E8CEC0FF0006EF3CF01F0F4CF02F018
:10282000E9CF03F0040EE12603C0E9FF02C0F4FF84
:1028300001C0F3FF0050E4CF03F0E4CF02F0E4CF97
:1028400001F0E4CF00F0E4CFD9FF1200D9CFE5FFCB
:10285000E1CFD9FF0F01428F0F0142ADFDD70F012C
:102860004251CF0B10090F01426F0F0141910F012F
:102870004151F30B08090F01416F0F01419B0F01FB
:10288000418F0F014051E00B07090F01406F795054
:10289000FC0B0109796E7994779A79887986779615
:1028A0007850FC0B786E789477987888788677944F
:1028B000A19CA19A798E788EE4CFD9FF1200D9CF4E
:1028C000E5FFE1CFD9FF00C0E5FF01C0E5FF02C091
:1028D000E5FF03C0E5FF020EDBCF00F0030EDBCF08
:1028E00001F0020ED56E0050FF0F026EFF0E0120A8
:1028F000036E02C000F003C001F0025003100AE0B2
:10290000D59EF294F80ED76E300ED66ED58EF2B4F8
:10291000EAD7FDD7D59EF294E4CF03F0E4CF02F0DE
:10292000E4CF01F0E4CF00F0E4CFD9FF1200D9CF1B
:10293000E5FFE1CFD9FF020EDBCF19F0030EDBCFAD
:102940001AF0040EDBCF1BF0050EDBCF1CF0195084
:102950001B02F4CF1EF0F3CF1DF01A501C02F4CF6F
:1029600020F0F3CF1FF019501C02F3501E26F45034
:102970001F22E86A20221A501B02F3501E26F45030
:102980001F22E86A202220C0E9FF1FC0F4FF1EC0FA
:10299000F3FF00011D51E4CFD9FF1200D9CFE5FFAD
:1029A000E1CFD9FF00C0E5FF01C0E5FF02C0E5FFB0
:1029B00003C0E5FF020EDBCF00F0030EDBCF01F01A
:1029C000E56AE56A0150E56E0050E56E7AEC0CF0C0
:1029D000006EF3CF01F0F4CF02F0E9CF03F0040E64
:1029E000E12603C0E9FF02C0F4FF01C0F3FF00507D
:1029F000E4CF03F0E4CF02F0E4CF01F0E4CF00F045
:102A0000E4CFD9FF1200D9CFE5FFE1CFD9FF00C055
:102A1000E5FF01C0E5FF020EDBCF17F0030EDBCFB1
:102A200018F01750180218BEF45E185017BEF45E66
:102A3000F4CF19F000011A6B0001195100011A6F4F
:102A40000001196BF3CF00F0016A00500001192753
:102A5000015000011A231AC0F3FF00011951E4CFFD
:102A600001F0E4CF00F0E4CFD9FF1200D9CFE5FFA9
:102A7000E1CFD9FF00C0E5FF01C0E5FF020EDBCFCB
:102A800017F0030EDBCF18F017501802F4CF19F02F
:102A900000011A6B0001195100011A6F0001196B36
:102AA000F3CF00F0016A0050000119270150000126
:102AB0001A231AC0F3FF00011951E4CF01F0E4CF4B
:102AC00000F0E4CFD9FF1200D9CFE5FFE1CFD9FF65
:102AD000938A0F0149513F0B0F01496FBA94FF0EC2
:102AE000BB6EBA50FC0BBA6E0F015D513F0B0F016C
:102AF0005D6F0F015D51F00B0C090F015D6F939A33
:102B0000800E0F015E6F0F015D51CF0B0F015D6FE6
:102B1000BA84E4CFD9FF1200D9CFE5FFE1CFD9FFC6
:102B2000C290C050F80B0609C06EC050C70B2809F0
:102B3000C06EC08EC150F30BC16EC150FC0BC16E94
:102B4000C18E92800F01388192820F0138839E9C42
:102B50009D9CC280E4CFD9FF1200D9CFE5FFE1CF21
:102B6000D9FF939881980F013B95959483940F0119
:102B70003A6B949A829A929889980F01389B929A0C
:102B8000899A0F01396B0F013B9B93809384938645
:102B9000E4CFD9FF1200D9CFE5FFE1CFD9FF9D9651
:102BA000C69AA09681A405D0F198010E0201916FFA
:102BB00004D0F188FF0E0201916FF288F0889D8C9D
:102BC000E4CFD9FF1200E8AE06D0F3CFEAFFEE5013
:102BD000EECFF3FF1200E8BC06EF00F0E9CFF6FFFE
:102BE000F3CFF7FFF86E0900F5500900F5CFF3FFBA
:102BF0001200F2CFEAFFF29EA69EA69CA684E9CF21
:102C0000A9FFF3CFAAFFE4CFA8FFB1EC16F0F4CFF1
:102C1000A8FFB1EC16F0A694EABEF28E1200D9CF4E
:102C2000E5FFE1CFD9FF94869488C69AC58EC5800A
:102C300098C2C8FF0201966BC650F00B0609C66E1B
:102C4000E4CFD9FF1200D9CFE5FFE1CFD9FFF29E43
:102C5000F29CD08EF18EF18CF09E9F8C9F96A28C70
:102C6000A28AF28EF28CE4CFD9FF1200F2CFF6FFE7
:102C7000F29EA69EA69CE9CFA9FFF3CFAAFFA6804D
:102C8000A850A94AAA2AA680A8CFF3FFF6BEF28EC2
:102C90001200D9CFE5FFE1CFD9FFF298F0989D9CC3
:102CA000A09CA09A9D86A086C69C9E96C688C68A31
:102CB000E4CFD9FF1200F2CFEAFFF29EA69EA69CB7
:102CC000A684E9CFA9FFF3CFAAFFE4CFA8FFB1EC18
:102CD00016F0A694EABEF28E1200E8AE04D0F3CF4E
:102CE000EAFFEE501200E8BC02EF00F0E9CFF6FF79
:102CF000F3CFF7FFF86E0900F5501200F2CFF6FFA0
:102D0000F29EA69EA69CE9CFA9FFF3CFAAFFA680BC
:102D1000A850F6BEF28E1200D9CFE5FFE1CFD9FF61
:102D2000020EDBCF88F2030EDBCF89F2E4CFD9FFAE
:102D30001200E8AE07D0F3CFEAFFE4CFEEFFF4CF06
:102D4000EEFF1200E8BC0AEF00F01200E8AE05D07A
:102D5000F3CFEAFFE4CFEEFF1200E8BC08EF00F08B
:102D60001200550EA76EAA0EA76EA682A6B2FED7B7
:102D7000A94AAA2A0100D6260000600000008100AE
:022D8000000051
:020000040030CA
:0100010032CC
:010003003EBE
:020005009F85D5
:0200000400F00A
:0B000000440178053C07181E000A00B0
:00000001FF
