:020000040000FA
:10000000BFEF0DF07CEF11F03AEF0BF059EF11F06C
:08001800D6EF0BF0006A016A4B
:10002000026A036AA1EC10F0D0A202D067EC0EF0D5
:10003000D082D080000E056EE10E046E800E066E3A
:10004000090EE56E0650E56E0550E56E0450E56E4E
:10005000B8EC0EF0040EE12615EC0EF00F01316B3A
:100060001EEC11F032EC11F005EC11F046EC11F041
:100070000F01246B73EC10F08384010EE56E2C0EDF
:10008000E56E06EC10F0E652E6528394010ED16E56
:1000900004000F01245102E13EEF03F00F0124514F
:1000A000010A12E00F012451020A02E1FCEF02F002
:1000B0000F012451040A01E15CD10F012451060A09
:1000C00002E146EF02F0E4D7046A8CB4042A04503B
:1000D000D880E866D890046A04360450010BE844DE
:1000E000E844F46E8C50FB0BF4108C6E0F0133510E
:1000F000100A04E1080E0F01346F02D00F01346BB7
:10010000100E0F0134250F01356FBF6A29CFBEFFD6
:10011000686A29CF67FF0F013451800F4F0F04E346
:10012000010E0F012B6F13D00F013451800F600FA0
:1001300003E30F012B6B0BD00F013451800F6F0FB6
:1001400004E3010E0F012B6F02D00F012B6B0F0187
:100150003551800F4F0F04E3010E0F012D6F13D0A7
:100160000F013551800F600F03E30F012D6B0BD092
:100170000F013551800F6F0F04E3010E0F012D6F3A
:1001800002D00F012D6B85EC09F0C7EC10F0EAEC02
:1001900010F0CD90CE6ACF6AB190B26AB36A020E07
:1001A0000F01286F020E0F012A6F0F013451200A30
:1001B00003E00F01345104E1020E0F012C6F0BD04C
:1001C0000F013451800F5F0F03E30F012C6B03D03D
:1001D000010E0F012C6F0F013551200A03E00F01B2
:1001E000355104E1020E0F012E6F0BD00F01355176
:1001F000800F5F0F03E30F012E6B03D0010E0F0181
:100200002E6F090E796E080E786E0F012C51020ABE
:1002100003E18B928B900CD00F012C5105E08B9257
:100220008B80990E796E04D08B908B82890E796EBB
:100230000F012E51020A03E18B948C9A0CD00F010E
:100240002E5105E08B948C8A980E786E04D08C9A8F
:100250008B84880E786E0F013451020DF4500F011B
:1002600034BF0208056EF3CF04F0000E0426020E20
:10027000052204C0E9FF05C0EAFFEECF04F0EFCF8E
:1002800005F0030E04160438F00B056E0550030B41
:10029000E838F46E0F015451CF0BF4100F01546F76
:1002A0000F013451020DF4500F0134BF0208056EE6
:1002B000F3CF04F0000E0426020E052204C0E9FF6D
:1002C00005C0EAFFEECF04F0EFCF05F0D89005327D
:1002D0000432D8900532043204500F01556F0F01DB
:1002E0003551020DF4500F0135BF0208056EF3CFF2
:1002F00004F0000E0426020E052204C0E9FF05C02A
:10030000EAFFEECF04F0EFCF05F0030E0416043839
:10031000F00B056E0550030BE838F46E0F015751D2
:10032000CF0BF4100F01576F0F013551020DF45030
:100330000F0135BF0208056EF3CF04F0000E04264E
:10034000020E052204C0E9FF05C0EAFFEECF04F06B
:10035000EFCF05F0D89005320432D8900532043240
:1003600004500F01586F8088808A060E0F01246F99
:100370008FD6090E796E080E786E0050030BE838A0
:10038000F46E0F015451CF0BF4100F01546F01C0E4
:1003900055FF0250030BE838F46E0F015751CF0B95
:1003A000F4100F01576F03C058FF0F013451800F35
:1003B0004F0F0AE30F013451800F410F05E2010E88
:1003C0000F012B6F808814D00F013451800F600F04
:1003D00003E30F012B6B0CD00F013451800F6F0F13
:1003E00005E3010E0F012B6F808802D00F012B6BEC
:1003F0000F013551800F4F0F0AE30F013551800F68
:10040000410F05E2010E0F012D6F808A14D00F01FC
:100410003551800F600F03E30F012D6B0CD00F01DE
:100420003551800F6F0F05E3010E0F012D6F808A8C
:1004300002D00F012D6B0F012C51020A03E18B92A8
:100440008B900CD00F012C5105E08B928B80990E74
:10045000796E04D08B908B82890E796E0F012E51AC
:10046000020A03E18B948C9A0CD00F012E5105E007
:100470008B948C8A980E786E04D08C9A8B84880E1C
:10048000786E060E0F01246F48EF00F0020E0F0188
:10049000246F0F012551010A1AE10F013351046E37
:1004A00004500F01342704500F0135270F01345138
:1004B000800F400F03E3C00E0F0134270F013551A9
:1004C000800F400F1DE3C00E0F01352719D00F011B
:1004D0003351046E04500F01345F04500F01355F37
:1004E000D8800F0134AFD89003E3400E0F013427BA
:1004F000D8800F0135AFD89003E3400E0F013527A8
:100500000F013451200A03E00F01345104E1020EBF
:100510000F012C6F0BD00F013451800F5F0F03E3DD
:100520000F012C6B03D0010E0F012C6F0F01355101
:10053000200A03E00F01355104E1020E0F012E6F76
:100540000BD00F013551800F5F0F03E30F012E6BAE
:1005500003D0010E0F012E6F0F013451020DF45024
:100560000F0134BF0208056EF3CF04F0000E04261D
:10057000020E052204C0E9FF05C0EAFFEECF04F039
:10058000EFCF05F00450066E030E06160C0E06267D
:100590000638F00B006ED89005320432D890053240
:1005A00004320450016E0F013551020DF4500F0159
:1005B00035BF0208056EF3CF04F0000E0426020ECC
:1005C000052204C0E9FF05C0EAFFEECF04F0EFCF3B
:1005D00005F00450066E030E06160C0E06260638AD
:1005E000F00B026ED89005320432D89005320432F6
:1005F0000450036E48EF00F079AC16D00F0128517B
:10060000020A12E10F012B51010A09E10F012C51DD
:1006100003E08B908B8204D08B928B8001D08098EA
:10062000010E0F01286FCD8078AC16D00F012A5132
:10063000020A12E10F012D51010A09E10F012E51A9
:1006400003E08C9A8B8404D08B948C8A01D0809A9E
:10065000010E0F012A6FB18081B648EF00F0F29EC3
:1006600046EC11F0799E789E799E789A8998899ABD
:1006700083940F01246BF28E48EF00F081A603D023
:10068000010E0F01246F0F013151D8B448EF00F073
:10069000000E056EE10E046E800E066E090EE56E0C
:1006A0000650E56E0550E56E0450E56E59EC0DF010
:1006B000040EE1260F01316B15EC0EF048EF00F04F
:1006C0001200D9CFE5FFE1CFD9FF00C0E5FF01C09F
:1006D000E5FF02C0E5FF03C0E5FF04C0E5FF05C07C
:1006E000E5FF06C0E5FF07C0E5FF08C0E5FF09C05C
:1006F000E5FF0AC0E5FF0BC0E5FF0CC0E5FF0EC03B
:10070000E5FF0FC0E5FF020EDBCF00F0030EDBCFED
:1007100001F0040EDBCF02F0050EDBCF03F0060E76
:10072000DBCF04F0070EDBCF05F0080EDBCF06F0C1
:10073000090EDBCF07F000500001F26F0150F36F9C
:100740000250F46F0350F56F04500001F66F05502E
:10075000F76F0650F86F0750F96F0001F251F3116F
:10076000F411F51106E00001F651F711F811F91135
:1007700005E1E96AF46AF36AE86A3ED10001F551DD
:10078000800BE844006E0001F951800BE844001A28
:100790000001F435F535016E026A820E0126D8A0FB
:1007A00002060001F835F935046A012604500222D8
:1007B0000001F251036EF351046E7F0EF415056EC5
:1007C000058E0350F26F0450F36F0550F46FF56B14
:1007D0000001F651036EF751046E7F0EF815056E99
:1007E000058E0350F66F0450F76F0550F86FF96BE4
:1007F0000001F351036EF451046EF551056E0001D2
:10080000F751076EF851086EF951E56AE56E085028
:10081000E56E0750E56EE56A0550E56E0450E56E3D
:100820000350E56E7BEC08F0036EF3CF04F0F4CFD9
:1008300005F0E9CF06F0080EE1260001F251076E3F
:100840000001F7510B6EF8510C6EF951E56AE56E37
:100850000C50E56E0B50E56EE56AE56AE56A0750F7
:10086000E56E7BEC08F0F3CF08F0F4CF09F0E9CFA8
:100870000AF0080EE1260850076E0950086E0A506B
:10088000096E0A6A075003260850042209500522FF
:100890000A5006220001F651076E0001F3510B6E5B
:1008A000F4510C6EF551E56AE56E0C50E56E0B5097
:1008B000E56EE56AE56AE56A0750E56E7BEC08F0EF
:1008C000F3CF08F0F4CF09F0E9CF0AF0080EE126E3
:1008D0000850076E0950086E0A50096E0A6A0750E0
:1008E000032608500422095005220A500622400E11
:1008F0000326000E04220522062206AE0ED0400E6C
:100900000326000E0422052206220450036E055021
:10091000046E0650056E066A11D003340434036E6B
:10092000046A04360550E844FE0B0412053406340C
:10093000056E066A0636FF0E01260222059E02504B
:10094000800F7F0F02E1000E015C19E3005006E00A
:10095000076A086A096A800E0A6E04D0076A086A84
:10096000096A0A6A098E7F0E0A1207500001F26FA7
:100970000850F36F0950F46F0A50F56F35D0D880E6
:1009800002AED89006E30001F26BF36BF46BF56BEB
:100990002BD0005006E0006A076A086A800E096ED4
:1009A00004D0006A076A086A096AE86A02300130FE
:1009B0000F6E0E6A0E320C6A0C50001207120E50A7
:1009C00008120F5009120050031207500412085069
:1009D00005120950061203500001F26F0450F36F24
:1009E0000550F46F0650F56FF5C0E9FFF4C0F4FF51
:1009F000F3C0F3FF0001F251E4CF0FF0E4CF0EF0AB
:100A0000E4CF0CF0E4CF0BF0E4CF0AF0E4CF09F030
:100A1000E4CF08F0E4CF07F0E4CF06F0E4CF05F030
:100A2000E4CF04F0E4CF03F0E4CF02F0E4CF01F030
:100A3000E4CF00F0E4CFD9FF1200D9CFE5FFE1CF3A
:100A4000D9FF00C0E5FF01C0E5FF02C0E5FF03C01C
:100A5000E5FF04C0E5FF05C0E5FF06C0E5FF07C0F0
:100A6000E5FF08C0E5FF09C0E5FF0AC0E5FF0BC0D0
:100A7000E5FF0CC0E5FF0DC0E5FF0EC0E5FF0FC0B0
:100A8000E5FF10C0E5FF020EDBCF00F0030EDBCF69
:100A900001F0040EDBCF02F0050EDBCF03F0060EF3
:100AA000DBCF04F0070EDBCF05F0080EDBCF06F03E
:100AB000090EDBCF07F0086A096A0A6A0B6A005060
:100AC0000001EA6F0150EB6F0250EC6F0350ED6FC5
:100AD00004500001EE6F0550EF6F0650F06F0750A5
:100AE000F16F0001EA51EB11EC11ED1109E1F1C0D8
:100AF000E9FFF0C0F4FFEFC0F3FF0001EE512AD18F
:100B00000001EE51EF11F011F11109E1EDC0E9FF23
:100B1000ECC0F4FFEBC0F3FF0001EA511BD1000170
:100B2000EC35ED35006E016A0136026A036A016A2E
:100B30000001F035F135026E190F046E000E03202E
:100B4000800FF36E0150800FF35C02E10050045CF3
:100B500009E2EDC0E9FFECC0F4FFEBC0F3FF0001D8
:100B6000EA51F8D00050190F046E000E0120800FDA
:100B7000F36E0350800FF35C02E10250045C09E263
:100B8000F1C0E9FFF0C0F4FFEFC0F3FF0001EE5148
:100B9000E1D00001EA51046EEB51056E7F0EEC15B9
:100BA000066E076A068E0001EE510C6EEF510D6E57
:100BB0007F0EF0150E6E0F6A0E8E0001ED51800B48
:100BC000E844106E10500AE0071E061E051E046C55
:100BD00005E1052A03E1062AD8B4072A0001F151EC
:100BE000800BE844106E10500AE00F1E0E1E0D1E02
:100BF0000C6C05E10D2A03E10E2AD8B40F2A03502C
:100C0000800FF36E0150800FF35C02E10050025C34
:100C100011E20050106E0250105E10501FE0E86CA0
:100C2000D8900FBED8800F320E320D320C32010F29
:100C3000F8E314D00250106E0050105E10500AE01D
:100C4000E86CD89007BED8800732063205320432ED
:100C5000010FF8E302C000F003C001F00C500426BD
:100C60000D5005220E5006220F500722D88007AEE5
:100C7000D89010E3071E061E051E046C05E1052A28
:100C800003E1062AD8B4072A086A096A0A6A800EAC
:100C90000B6E0AD0045005100610071005E1E96A32
:100CA000F46AF36AE86A56D00450026E0550036E87
:100CB00006500C6E07500D6E000E0D5C08E1800EA4
:100CC0000C5C05E1000E035C02E1000E025C09E22F
:100CD00004500426053606360736FF0E002601228C
:100CE000E3D7075010E004A006D0020E0426000E41
:100CF0000522062207220734073206320532043263
:100D0000004A012AEED7069EE86A013000300F6ED5
:100D10000E6A0E320C6A0C50081209120E500A129A
:100D20000F500B12045008120550091206500A12F7
:100D300007500B1208500001EA6F0950EB6F0A5080
:100D4000EC6F0B50ED6FEDC0E9FFECC0F4FFEBC0B2
:100D5000F3FFEA51E4CF10F0E4CF0FF0E4CF0EF050
:100D6000E4CF0DF0E4CF0CF0E4CF0BF0E4CF0AF0C9
:100D7000E4CF09F0E4CF08F0E4CF07F0E4CF06F0C9
:100D8000E4CF05F0E4CF04F0E4CF03F0E4CF02F0C9
:100D9000E4CF01F0E4CF00F0E4CFD9FF1200D9CFC7
:100DA000E5FFE1CFD9FF00C0E5FF01C0E5FF02C0CC
:100DB000E5FF03C0E5FF04C0E5FF05C0E5FF06C091
:100DC000E5FF07C0E5FF08C0E5FF09C0E5FF0AC071
:100DD000E5FF0BC0E5FF0CC0E5FF0DC0E5FF0EC051
:100DE000E5FF0FC0E5FF10C0E5FF11C0E5FF12C031
:100DF000E5FF13C0E5FF14C0E5FF15C0E5FF16C011
:100E0000E5FF020EDBCF00F0030EDBCF01F0040E96
:100E1000DBCF02F0050EDBCF03F0060EDBCF04F0D4
:100E2000070EDBCF05F0080EDBCF06F0090EDBCF97
:100E300007F000500F01146F0150156F0250166F2C
:100E40000350176F04500F01186F0550196F0650AB
:100E50001A6F07501B6F0F011651026E1751036E68
:100E600002340334006E016A0136026A036A016AC1
:100E70000F011A51046E1B51056E04340534005ED7
:100E80000350015A7E0E0026D8B0012A0F011751D7
:100E9000800BE844026E0F011B51800BE844021ADC
:100EA000185119111A111B110EE1186B196BC00E94
:100EB0001A6F7F0E1B6F1BCFE9FF1ACFF4FF19CFFC
:100EC000F3FF1851E7D00F01145115111611171126
:100ED00005E1E96AF46AF36AE86ADCD00F011451AB
:100EE000036E1551046E7F0E1615056E066A058E8B
:100EF0000F011851076E1951086E7F0E1A15096EF1
:100F00000A6A098E0650800FF36E0A50800FF35C58
:100F100008E10950055C05E10850045C02E1075056
:100F2000035C08E203500326043605360636FF0E3E
:100F3000002601220B6A0C6A0D6A010E0E6E0F6A02
:100F4000106A116A126A0B500C100D100E1037E067
:100F50000650800FF36E0A50800FF35C08E10950D1
:100F6000055C05E10850045C02E10750035C1CE3EA
:100F70000F50136E1050146E1150156E1250166EE5
:100F80000B5013100F6E0C501410106E0D501510E6
:100F9000116E0E501610126E0750035E0850045A60
:100FA0000950055A0A50065A0350032604360536DE
:100FB0000636D8900E320D320C320B32C4D70F2ABF
:100FC00004E3102A02E3114A122A004A012A1234C9
:100FD0001232113210320F32119E0150800F7F0FEA
:100FE00002E1000E005C19E3025006E0036A046AA5
:100FF000056A800E066E04D0036A046A056A066AF2
:10100000058E7F0E061203500F01146F0450156FEA
:101010000550166F0650176F35D0D88001AED890A6
:1010200006E30F01146B156B166B176B2BD0025078
:1010300006E0026A036A046A800E056E04D0026A42
:10104000036A046A056AE86A013000300B6E0A6AB6
:101050000A32086A0850021203120A5004120B5096
:1010600005120F50021210500312115004121250A8
:10107000051202500F01146F0350156F0450166FC4
:101080000550176F17CFE9FF16CFF4FF15CFF3FF09
:101090000F011451E4CF16F0E4CF15F0E4CF14F0B3
:1010A000E4CF13F0E4CF12F0E4CF11F0E4CF10F06E
:1010B000E4CF0FF0E4CF0EF0E4CF0DF0E4CF0CF06E
:1010C000E4CF0BF0E4CF0AF0E4CF09F0E4CF08F06E
:1010D000E4CF07F0E4CF06F0E4CF05F0E4CF04F06E
:1010E000E4CF03F0E4CF02F0E4CF01F0E4CF00F06E
:1010F000E4CFD9FF1200D9CFE5FFE1CFD9FF00C07F
:10110000E5FF01C0E5FF02C0E5FF03C0E5FF04C045
:10111000E5FF05C0E5FF06C0E5FF07C0E5FF020EDD
:10112000DBCF00F0030EDBCF01F0040EDBCF02F0CB
:10113000050EDBCF03F0060EDBCF04F0070EDBCF8E
:1011400005F0080EDBCF06F0090EDBCF07F00050EC
:101150000001FA6F0150FB6F0250FC6F0350FD6FEE
:1011600004500F01006F0550016F0650026F0750C9
:10117000036F0001FA510F010203F4CF01F0F3CF26
:1011800000F000500F01066F0150076F0001FA5187
:101190000F010003F4CF01F0F3CF00F000500F0176
:1011A000046F0150056F0001FD510F010003F3CFE3
:1011B00000F00F01075100260050076F0001FC519D
:1011C0000F010103F3CF01F00150002600500F0181
:1011D000076F0001FC510F010003F4CF01F0F3CFC2
:1011E00000F00F0106510026075101220050066F42
:1011F0000150076F0001FB510F010103F4CF03F011
:10120000F3CF02F0025000260350012200500F01DC
:10121000066F0150076F0001FB510F010203F3CF6E
:1012200000F000500F010B6F0001FB510F01000394
:10123000F4CF01F0F3CF00F000500F01096F01501F
:101240000A6F0001FA510F010303F3CF00F00050C1
:101250000F010F6F0001FA510F010103F4CF01F0EC
:10126000F3CF00F000500F010D6F01500E6F0F0112
:10127000086B0F010C6B0F0108510F010425006E64
:101280000F0109510F010521016E0F010A510F01D4
:101290000621026E0F010B510F010721036E005052
:1012A000046F0150056F0250066F0350076F0F0166
:1012B0000C510F010425006E0F010D510F01052186
:1012C000016E0F010E510F010621026E0F010F5129
:1012D0000F010721036E03C0E9FF02C0F4FF01C044
:1012E000F3FF0050E4CF07F0E4CF06F0E4CF05F0C1
:1012F000E4CF04F0E4CF03F0E4CF02F0E4CF01F058
:10130000E4CF00F0E4CFD9FF1200D9CFE5FFE1CF61
:10131000D9FF00C0E5FF01C0E5FF02C0E5FF03C043
:10132000E5FF04C0E5FF05C0E5FF06C0E5FF07C017
:10133000E5FF08C0E5FF09C0E5FF0AC0E5FF0F01B2
:101340002151E56E0F012051E56E3EEC10F0006E6C
:10135000F3CF01F0F4CF02F0E9CF03F0E652E6520A
:101360000F012351E56E0F012251E56E3EEC10F0A6
:10137000046EF3CF05F0F4CF06F0E9CF07F0E652A4
:10138000E6520750E56E0650E56E0550E56E0450D6
:10139000E56E0350E56E0250E56E0150E56E0050BB
:1013A000E56ECFEC06F0006EF3CF01F0F4CF02F063
:1013B000E9CF03F0080EE126430EE56EFF0EE56E61
:1013C000C00EE56E000EE56E09EC0FF00001FE6F39
:1013D000F3CFFFF0040EE126046A0450020DF4502E
:1013E000066EF3CF05F0600E0524076E000E062092
:1013F000086E07C0E9FF08C0EAFFEECF07F0EFCFA5
:1014000008F00850E56E0750E56E92EC0FF0076E9D
:10141000F3CF08F0F4CF09F0E9CF0AF0E652E65234
:101420000350E56E0250E56E0150E56E0050E56E2A
:101430000A50E56E0950E56E0850E56E0750E56EFE
:1014400061EC03F0076EF3CF08F0F4CF09F0E9CFB9
:101450000AF0080EE126430EE56EFF0EE56EC00EA3
:10146000E56E000EE56E0A50E56E0950E56E085017
:10147000E56E0750E56E1DEC05F0076EF3CF08F042
:10148000F4CF09F0E9CF0AF0080EE126000E052698
:10149000020E06220A50E56E0950E56E0850E56E10
:1014A0000750E56E09EC0FF0076EF3CF08F0040E5D
:1014B000E12605C0E9FF06C0EAFF07C0EEFF08C04D
:1014C000EFFF042A400E045CD8A087D7E4CF0AF0CF
:1014D000E4CF09F0E4CF08F0E4CF07F0E4CF06F062
:1014E000E4CF05F0E4CF04F0E4CF03F0E4CF02F062
:1014F000E4CF01F0E4CF00F0E4CFD9FF1200D9CF60
:10150000E5FFE1CFD9FF00C0E5FF01C0E5FF02C064
:10151000E5FF03C0E5FF04C0E5FF05C0E5FF06C029
:10152000E5FF07C0E5FF08C0E5FF09C0E5FF0AC009
:10153000E5FF0BC0E5FF020EDBCF00F0030EDBCFB3
:1015400001F0040EDBCF02F0050EDBCF03F00050FC
:1015500001100210031005E1E96AF46AF36AE86A0F
:101560006ED0960E046E056A035008E0D8900332E0
:10157000023201320032044A052AF6D704C006F0CE
:1015800005C007F0000E035C08E1800E025C05E177
:10159000000E015C02E1000E005C18E20050002623
:1015A000013602360336FF0E04260522000E035CC8
:1015B00008E1800E025C05E1000E015C02E1000E14
:1015C000005CECE304C006F005C007F00050046EB8
:1015D0000150056E7F0E0214086E096A0450FF0A5E
:1015E00008E10550FF0A05E108507F0A02E10950B1
:1015F00001E006D0006A016A026A036A064A072A05
:10160000029EE86A073006300B6E0A6A0A32086AE0
:101610000850001201120A5002120B50031200501F
:101620000F011C6F01501D6F02501E6F03501F6F82
:101630001FCFE9FF1ECFF4FF1DCFF3FF1C51E4CFF6
:101640000BF0E4CF0AF0E4CF09F0E4CF08F0E4CFE8
:1016500007F0E4CF06F0E4CF05F0E4CF04F0E4CFE8
:1016600003F0E4CF02F0E4CF01F0E4CF00F0E4CFE8
:10167000D9FF1200D8CFE5FFE0CFE5FFE56EF3CF4D
:10168000E5FFF4CFE5FFE9CFE5FFEACFE5FFFACFCD
:10169000E5FFFBCFE5FFD9CFE5FFE1CFD9FFF2A210
:1016A00004D0040E0F01246FF292F0A20FD081A497
:1016B00005D0F198010E0F01256F04D0F188FF0EBF
:1016C0000F01256F060E0F01246FF0929EA42CD0FF
:1016D000CD90CE6ACF6A0F012851010A1BE10F019C
:1016E0002B51010A09E10F012C5103E08B928B80F1
:1016F00004D08B908B8201D08988BF6A0F012C5156
:1017000003E026CFBEFF02D027CFBEFF0F01286B1C
:10171000CD8009D00F01285106E1BF6A29CFBEFF55
:10172000020E0F01286F9E94A1A02CD0B190B26A36
:10173000B36A0F012A51010A1BE10F012D51010A61
:1017400009E10F012E5103E08B948C8A04D08C9A0E
:101750008B8401D0898A686A0F012E5103E026CF5D
:1017600067FF02D027CF67FF0F012A6BB18009D036
:101770000F012A5106E1686A29CF67FF020E0F01A7
:101780002A6FA190E4CFD9FFE4CFFBFFE4CFFAFFAB
:10179000E4CFEAFFE4CFE9FFE4CFF4FFE4CFF3FFC7
:1017A000E450E4CFE0FFE4CFD8FF1000D8CFE5FF4E
:1017B000E0CFE5FFE56EF3CFE5FFF4CFE5FFE9CF3E
:1017C000E5FFEACFE5FFFACFE5FFFBCFE5FFD9CF95
:1017D000E5FFE1CFD9FF00C0E5FF01C0E5FF02C092
:1017E000E5FF006A9EA654D0C7A002D0C9CF00F082
:1017F000C7BA14D00F012F6BC7A43DD030CF01F072
:101800000F01302B026AE10E0126000E022201C0F8
:10181000E9FF02C0EAFFEFCFC9FF2DD00F012F2B48
:10182000C7A410D030CF01F00F01302B026AE10EB7
:101830000126000E022201C0E9FF02C0EAFFEFCF3D
:10184000C9FF19D00F012F51010A03E100C030FF79
:1018500012D030CF01F00F01302B026AE10E0126C9
:10186000000E022201C0E9FF02C0EAFF00C0EFFF44
:10187000010E0F01316F090EE56E30CFE5FFCCECA4
:101880000FF00F01306FE450E4509E96C68803D0ED
:10189000A1A601D0A196E4CF02F0E4CF01F0E4CFFD
:1018A00000F0E4CFD9FFE4CFFBFFE4CFFAFFE4CFB1
:1018B000EAFFE4CFE9FFE4CFF4FFE4CFF3FFE45025
:1018C000E4CFE0FFE4CFD8FF1000D9CFE5FFE1CFB0
:1018D000D9FF00C0E5FF01C0E5FF02C0E5FF03C07E
:1018E000E5FF04C0E5FF05C0E5FF06C0E5FF07C052
:1018F000E5FF020EDBCF00F0030EDBCF01F0040E9C
:10190000DBCF02F0050EDBCF03F0D88003AED8901A
:101910002AE3031C076E021C066E011C056E001CE8
:10192000046E042A04E1052A02E1064A072A075048
:10193000E56E0650E56E0550E56E0450E56E7FECF1
:101940000AF0046EF3CF05F0F4CF06F0E9CF07F00C
:10195000040EE126077E07C0E9FF06C0F4FF05C0BC
:10196000F3FF04501AD00350E56E0250E56E0150AB
:10197000E56E0050E56E7FEC0AF0006EF3CF01F0EB
:10198000F4CF02F0E9CF03F0040EE12603C0E9FF33
:1019900002C0F4FF01C0F3FF0050E4CF07F0E4CF32
:1019A00006F0E4CF05F0E4CF04F0E4CF03F0E4CF99
:1019B00002F0E4CF01F0E4CF00F0E4CFD9FF120051
:1019C000D9CFE5FFE1CFD9FF00C0E5FF01C0E5FFBA
:1019D00002C0E5FF03C0E5FF04C0E5FF05C0E5FF69
:1019E000020EDBCF00F0030EDBCF01F0040EDBCFE5
:1019F00002F0050EDBCF03F000500F01106F015015
:101A0000116F0250126F0350136F10511111121108
:101A1000131106E01351800BE844006E005005E0FE
:101A2000E96AF46AF36AE86A35D00F01105112517D
:101A3000026E1351036E02340334006E016A6A0EA3
:101A40000026D8A001061051026E1151036E7F0EC0
:101A50001215046E056A048E011E006CD8B4012AAA
:101A6000005011E009E6E86CD890053204320332E8
:101A70000232010FFAE307D0D8900236033604365B
:101A80000536010FFAE305C0E9FF04C0F4FF03C007
:101A9000F3FF0250E4CF05F0E4CF04F0E4CF03F00D
:101AA000E4CF02F0E4CF01F0E4CF00F0E4CFD9FFBF
:101AB0001200D9CFE5FFE1CFD9FF00C0E5FF01C09B
:101AC000E5FF02C0E5FF03C0E5FF04C0E5FF05C078
:101AD000E5FF06C0E5FF07C0E5FF08C0E5FF020E11
:101AE000DBCF00F0030EDBCF01F0040EDBCF02F002
:101AF000050EDBCF03F0AA6A046A0350045C2AE2F5
:101B000004C0A9FFA69EA69CA680A8CF05F00450FD
:101B10000024066EE86A0120076EE86A0220086E5B
:101B200006C0E9FF07C0F3FF08506BEC11F0066E2A
:101B3000055006180DE006C0A8FFA69EA69CA68428
:101B4000F29E550EA76EAA0EA76EA682F28EA694DE
:101B5000042AD3D7E4CF08F0E4CF07F0E4CF06F0AF
:101B6000E4CF05F0E4CF04F0E4CF03F0E4CF02F0DB
:101B7000E4CF01F0E4CF00F0E4CFD9FF120011EE82
:101B8000FFF021EEFFF0F86AA68EA69CE9680E0E23
:101B9000EA6E0068ED6A0050FDE13C0EF66E230E21
:101BA000F76E000EF86E0900F5CF05F00900F5CFCD
:101BB00006F034D00900F5CF00F00900F5CF01F0B0
:101BC0000900F5CF02F009000900F5CFE9FF09008F
:101BD000F5CFEAFF090009000900F5CF03F009007D
:101BE000F5CF04F009000900F6CF07F0F7CF08F0B1
:101BF000F8CF09F000C0F6FF01C0F7FF02C0F8FF00
:101C000003D00900F5CFEEFF0306FBE20406F9E27C
:101C100007C0F6FF08C0F7FF09C0F8FF0506CAE2D3
:101C20000606C8E20EEC00F0FFD7D9CFE5FFE1CF02
:101C3000D9FF00C0E5FF01C0E5FF02C0E5FF03C01A
:101C4000E5FFE1C032FFE2C033FFE3C020FF0F0138
:101C5000216BE4C000F0016A0050036E026A02507A
:101C6000006E0350016E00500F01202701500F013C
:101C70002123E5C022FF0F01236BE6C000F0016ABB
:101C80000050036E026A0250006E0350016E005055
:101C90000F01222701500F0123230001E751020DFC
:101CA000F3CF29FF0001E851020DF3CF27FF000118
:101CB000E951020DF3CF26FFE4CF03F0E4CF02F0A9
:101CC000E4CF01F0E4CF00F0E4CFD9FF1200D9CF88
:101CD000E5FFE1CFD9FF00C0E5FF01C0E5FFD0A6D9
:101CE00004D0D0A402D0D0B007D0D086D084D09079
:101CF000D0928188828AFFD7FCBE02D0FCAC31D062
:101D0000FC9EFC9C8188828ACD503F0BCD6E780E64
:101D1000006ECD909E90CD50CF0B3009CD6EB10EA0
:101D2000CF6EDF0ECE6ECD809EA0FED70004016E7A
:101D300001C000F00150EDE1016A8BBA012A0150A7
:101D4000D880E866D890016A01360150010BE83866
:101D5000E844F46E8B50DF0BF4108B6E780E006E3F
:101D6000D8D7E4CF01F0E4CF00F0E4CFD9FF1200E0
:101D7000D9CFE5FFE1CFD9FF00C0E5FF01C0E5FF06
:101D800002C0E5FF03C0E5FF04C0E5FF05C0E5FFB5
:101D900006C0E5FF07C0E5FF020EDBCF00F0030E33
:101DA000DBCF01F0040EDBCF02F0050EDBCF03F03A
:101DB000AA6A046A0350045C19E204C0A9FFA69E43
:101DC000A69CA68004500024056EE86A0120066ED9
:101DD000E86A0220076EA8CFE5FF05C0E9FF06C04C
:101DE000F3FF07508AEC11F0042AE4D7E4CF07F0A0
:101DF000E4CF06F0E4CF05F0E4CF04F0E4CF03F045
:101E0000E4CF02F0E4CF01F0E4CF00F0E4CFD9FF5B
:101E10001200D9CFE5FFE1CFD9FF00C0E5FF01C037
:101E2000E5FF02C0E5FF03C0E5FF020EDBCF00F0D7
:101E3000030EDBCF01F0040EDBCF02F0050EDBCF8B
:101E400003F00350E56E0250E56E0150E56E005060
:101E5000E56EE0EC0CF0006EF3CF01F0F4CF02F091
:101E6000E9CF03F0040EE126000E035C08E1000E4A
:101E7000025C05E1FF0E015C02E1FF0E005C03E382
:101E8000F368E86803D001C0F3FF0050E4CF03F02B
:101E9000E4CF02F0E4CF01F0E4CF00F0E4CFD9FFCB
:101EA00012000000320064009500C400F1001C0123
:101EB00045016A018C01AA01C401D901EA01F601B8
:101EC000FE010002FE01F601EA01D901C401AA01E6
:101ED0008C016A0145011C01F100C40095006400F9
:101EE00032000000CEFF9CFF6BFF3CFF0FFFE4FEC3
:101EF000BBFE96FE74FE56FE3BFE27FE16FE0AFE55
:101F000002FE00FE02FE0AFE16FE27FE3CFE56FE04
:101F100074FE96FEBBFEE4FE0FFF3CFF6BFF9CFFD2
:101F2000CEFF0000D9CFE5FFE1CFD9FF00C0E5FF2C
:101F300001C0E5FF02C0E5FF03C0E5FF020EDBCFF5
:101F400000F0030EDBCF01F0E86A01BEFF0E026E67
:101F5000E56E0250E56E0150E56E0050E56E65ECF1
:101F60000CF0006EF3CF01F0F4CF02F0E9CF03F0F4
:101F7000040EE12603C0E9FF02C0F4FF01C0F3FF35
:101F80000050E4CF03F0E4CF02F0E4CF01F0E4CF5F
:101F900000F0E4CFD9FF1200D9CFE5FFE1CFD9FFA0
:101FA00000C0E5FF01C0E5FF02C0E5FF03C0E5FF9B
:101FB000020EDBCF00F0030EDBCF01F0026A036AF2
:101FC00001BE0CD0D89001360150005C03E2D890DD
:101FD000013204D0032A03C002F0F2D70150005CA2
:101FE00002E30150005ED890013202C003F0020605
:101FF0000350F4E10050E4CF03F0E4CF02F0E4CF6B
:1020000001F0E4CF00F0E4CFD9FF1200D9CFE5FF13
:10201000E1CFD9FF00C0E5FF01C0E5FF02C0E5FF49
:1020200003C0E5FF020EDBCF00F0030EDBCF01F0B3
:10203000020ED56E0050FF0F026EFF0E0120036EE0
:1020400002C000F003C001F0025003100AE0D59E68
:10205000F294F80ED76E300ED66ED58EF2B4EAD763
:10206000FDD7D59EF294E4CF03F0E4CF02F0E4CFA5
:1020700001F0E4CF00F0E4CFD9FF1200D9CFE5FFA3
:10208000E1CFD9FF00C0E5FF01C0E5FF02C0E5FFD9
:1020900003C0E5FF020EDBCF00F0030EDBCF01F043
:1020A000E56AE56A0150E56E0050E56E7FEC0AF0E6
:1020B000006EF3CF01F0F4CF02F0E9CF03F0040E8D
:1020C000E12603C0E9FF02C0F4FF01C0F3FF0050A6
:1020D000E4CF03F0E4CF02F0E4CF01F0E4CF00F06E
:1020E000E4CFD9FF1200D9CFE5FFE1CFD9FFCD5022
:1020F0003F0BCD6ECD50CF0B3009CD6ECD90CE6A5B
:10210000CF6AB1503F0BB16EB150CF0B3009B16EF9
:10211000B190B26AB36A0F014951FC0B0F01496FCC
:102120000F014951E70B08090F01496FBD50F00B32
:102130000A09BD6E6650F00B0A09666EE4CFD9FF3E
:102140001200D9CFE5FFE1CFD9FF939881980F0115
:102150003B95959483940F013A6B949A829A94904C
:10216000949292988B908B92899894940F013B9BB8
:10217000959A0F01389B929A8B948C9A899A0F01A9
:10218000396B938093849386E4CFD9FF1200D9CF23
:10219000E5FFE1CFD9FF0F013C9596840F013B93FA
:1021A00095820F01486BFF0EBB6EBA50FC0BBA6EE6
:1021B000BA840F015451F00B0C090F01546F0F0139
:1021C0005751F00B0C090F01576F96949592E4CF7D
:1021D000D9FF1200D9CFE5FFE1CFD9FF9D96C69A6E
:1021E000A09681A405D0F198010E0F01256F04D0AF
:1021F000F188FF0E0F01256FF288F088A09CA09A4D
:102200009D84A080E4CFD9FF1200D9CFE5FFE1CFB4
:10221000D9FF0F01388192800F01388392820F011C
:10222000388592840F0138879286090E796E080EE0
:10223000786E77967794E4CFD9FF1200D9CFE5FF77
:10224000E1CFD9FF94869488C69AC58EC58032CFD7
:10225000C8FF0F01306BC650F00B0609C66EE4CF05
:10226000D9FF1200D9CFE5FFE1CFD9FFF29EF29C52
:10227000D08EF18EF18CF08EA28CA28A9F84A280E7
:102280009F96F28EF28CE4CFD9FF1200D9CFE5FFF2
:10229000E1CFD9FFF298F098A09CA09A9D94A090CD
:1022A0009D86A086C69C9E96C688C68AE4CFD9FF26
:1022B0001200F2CFEAFFF29EA69EA69CA684E9CF6A
:1022C000A9FFF3CFAAFFE4CFA8FF95EC11F0A694E5
:1022D000EABEF28E1200E8AE04D0F3CFEAFFEE5071
:1022E0001200E8BC02EF00F0E9CFF6FFF3CFF7FFF2
:1022F000F86E0900F5501200F2CFF6FFF29EA69E8E
:10230000A69CE9CFA9FFF3CFAAFFA680A850F6BEEE
:10231000F28E1200E8AE05D0F3CFEAFFE4CFEEFF75
:102320001200E8BC06EF00F01200550EA76EAA0ED0
:10233000A76EA682A6B2FED7A94AAA2A0100A21EAB
:0A23400000006000000081000000B2
:020000040030CA
:0100010032CC
:010003003EBE
:020005009B85D9
:0200000400F00A
:0900000044020807740E140A0101
:00000001FF
